:1000000024C048C074C5F2C41CC844C043C042C028
:10001000A8C440C03FC03EC03DC03CC03BC03AC089
:1000200039C038C037C036C035C034C033C032C024
:1000300031C030C02FC02EC02DC084C30102048047
:100040004020100804020108AF0B11241FBECFEF9F
:10005000D2E0DEBFCDBF11E0A0E0B1E0E4E9FEE117
:1000600002C005900D92A232B107D9F721E0A2E2B9
:10007000B1E001C01D92A03EB207E1F710E0C5E279
:10008000D0E003C02197FE01FDDEC432D107D1F7D5
:1000900087DBFECEB5CFE82FF0E0E45CFF4FE491C4
:1000A000A6E3B0E0833010F0A9E3B0E08C91E82340
:1000B00081E090E011F490E080E00895CF93DF9329
:1000C000E82FF0E0E45CFF4FE491833001F18230EF
:1000D00029F48091CA008F738093CA00C8E3D0E0EE
:1000E000A2E6B0E09E2F90952FB761110BC0F89457
:1000F0008881892388838C9189238C932FBFDF91FA
:10010000CF910895F8948881E82BE883F4CF80910B
:10011000CA008F7C8093CA00CBE3D0E0A3E6B0E0B6
:10012000E1CFCF93DF9386FF04C08F739AE0981BD3
:10013000892FE82FF0E0E45CFF4FE4918B3011F061
:100140008330D0F488E390E0A7E3B0E0C2E6D0E0EB
:100150002E2F2095611117C04FB7F8943C91322390
:100160003C93DC013C9132233C93888128232883F3
:100170004FBFDF91CF9108958BE390E0AAE3B0E009
:10018000C3E6D0E0E5CF623069F44FB7F8943C9114
:1001900023232C93DC012C912E2B2C938881E82B8C
:1001A000E883E6CF9FB7F8948881282328838C9131
:1001B000E82BEC939FBFDDCF86FD8F7328B1909124
:1001C0006E019295990F907E2F71922B98B999B1EB
:1001D000907C892B89B92E9A2E99FECF86B197B142
:1001E0000895CF93DF93DC011C96ED91FC9126A13D
:1001F00037A12032310510F5A6A1B7A1C6A1D7A11C
:1002000020E230E02A1B3B0B4217530708F49A0107
:10021000DB01EC0FFD1FB9016E0F7F1FE617F7071B
:1002200019F04D914193FACFDC011C96ED91FC91B0
:1002300086A197A1280F391F37A326A3DF91CF915D
:100240000895DC011C96ED91FC9186A197A1809701
:1002500068F486A197A19C012F5F3F4F37A326A387
:10026000E80FF91F608381E090E0089590E080E05E
:100270000895682F82EA91E0E4CF0895DC011C968E
:10028000ED91FC9120A131A182A193A128173907FA
:1002900038F480A191A1E80FF91F808190E00895C2
:1002A0008FEF9FEF0895982F82958F706AE0B7DDEA
:1002B0009F70890F089581E08093360161E031DFFE
:1002C00060E081E0FBCE80913901883770F0809149
:1002D0003801882351F080913701811106C0EBDF8E
:1002E00081E08093370110923A010895882339F014
:1002F0008091510190E09093350180933401809179
:1003000034019091350184359105A0F48091340138
:10031000909135012091340130913501281B390B22
:1003200030933501209334016DE073E081DD8095D9
:100330009095089583E590E0EDCF60E080E0BEDE2B
:1003400060E080E0EEDE10923001089581E080935D
:10035000300161E080E0E5DE61E080E0AFDE109238
:100360002E0108951092380160E083E0A7DE10921C
:10037000330108951FBC1EBC8EB584608EBD8EB542
:1003800081608EBD709A81E0B1DF9DBD8CBD789A91
:100390000895DC011C96ED91FC9120A131A182A170
:1003A00093A12817390760F480A191A19C012F5FC8
:1003B0003F4F31A320A3E80FF91F808190E00895FB
:1003C0008FEF9FEF0895DC011C96ED91FC9182A1C7
:1003D00093A120A131A1821B930B0895662351F0B4
:1003E00082EA91E0F0DF892B29F082EA91E0D1DF07
:1003F00080932B0181E00895DC019C96EC919C9701
:100400009D962C91E21730F4E80FF92FF11D8485A9
:1004100090E008958FEF9FEF0895FC0194A585A5C6
:100420002FEF3FEF981740F4DF01A90FB11D1C9685
:100430002C9130E09F5F94A7C9010895FC0185A528
:1004400094A5891B990B0895CF92DF92EF92FF92AA
:100450000F931F93CF93DF936C01EB017B01E40EAD
:10046000F51E10E000E0CE15DF0561F06991D601C0
:10047000ED91FC910190F081E02DC6010995080FE6
:10048000191FF1CFC801DF91CF911F910F91FF90FC
:10049000EF90DF90CF9008950F931F93CF93082F85
:1004A00010E0F801E45CFE4F6083823358F4C62FFD
:1004B000C8017CDAC81731F06C2FC801CF911F91A9
:1004C0000F917CCACF911F910F9108958F929F92A7
:1004D000AF92BF92CF92DF92EF92FF92CF9381E4DF
:1004E0006BDE7C0160915401062E000C770B880BAB
:1004F000990B76DB20E030E048EC52E4D6DA4B0191
:100500005C01B701FF0C880B990B6ADB20E93BE02B
:100510004BE75DE319DC9B01AC01C501B4015DDA79
:100520006B017C012FDBC62F81E0B6DF6C2F70E002
:1005300090E080E055DB9B01AC01C701B6014CDACD
:1005400020E030E048EC52E4FFDB1CDB82E0A4DF7B
:10055000C701B601CF91FF90EF90DF90CF90BF9091
:10056000AF909F908F900895CF92DF92EF92FF927D
:10057000CF93C5B12F9A81E41FDEBC01990F880B80
:10058000990B2EDB20E93BE04BE75DE3DDDB6B0104
:100590007C01C5B9C1E020E030E048EA50E4D0DB9E
:1005A00018160CF0C0E06C2F87E076DFC701B601AB
:1005B000CF91FF90EF90DF90CF90089581E08093EE
:1005C00038011092390161E083E078DDCDCFCF9220
:1005D000DF92EF92FF920F931F93CF9378982F980B
:1005E00085B7877E806185BF85B7806285BF80E2E1
:1005F0008BBF82E080BD789481E0809332010CEC67
:1006000017E0889580913201882309F464C08091B5
:100610002A018F5F80932A0190914E0180912A01D7
:10062000891708F458C010922A018091500188233C
:1006300069F0C09150018ADE8C2F90E0B0E0A0E01C
:100640000197A109B10908F068C077DE80915301D4
:10065000882379F0C091530161E083E02FDD8C2F76
:1006600090E0B0E0A0E00197A109B10908F059C0FD
:1006700079DE7ADF6B017C0180914301813021F0CA
:1006800080916501813039F580914401813041F0DC
:1006900080914F018F3F21F0809166018130D9F424
:1006A000809152018F3FB9F06091520170E090E06B
:1006B00080E094DA20E030E040E251E4F6D99B019A
:1006C000AC01C701B6013CDB87FD05C010923201C9
:1006D00065E08BE0E1DE80913201811192CFF894E8
:1006E00085B78F7D85BF2F9A45DE80E38BBF83E082
:1006F00080BD789410922F0110923A011092370128
:100700005DDF81E0F3DD9DBD8CBDCF911F910F9129
:10071000FF90EF90DF90CF900895F8013197F1F7B7
:100720008FCFF8013197F1F79ECF80913B0188235D
:1007300041F081E0B0DC892B21F410923A0112DE05
:1007400046CF08951F920F920FB60F9211242F9348
:100750003F934F935F936F937F938F939F93AF9349
:10076000BF93CF93EF93FF93C091A3008C2F8C7016
:1007700019F18FEF809397018091980190919901E1
:100780009F7790939901809398018091A300846C46
:100790008093A300FF91EF91CF91BF91AF919F9173
:1007A0008F917F916F915F914F913F912F910F901A
:1007B0000FBE0F901F901895C6FD28C0809198011C
:1007C0009091990197FD22C0C7FF6FC0C1FFAFC0D4
:1007D000209193013091940180919501909196011F
:1007E0002817390708F0A1C08091930190919401D6
:1007F0009C012F5F3F4F30939401209393018159C7
:100800009E4FFC0180818093A0004FC0C0FF66C056
:10081000809198019091990197FF29C0809198014A
:10082000909199012091A0009695982F88279795EF
:10083000879588279370822B9093990180939801D4
:10084000E0919A01F0919B01309789F1109290010B
:1008500010928F0160919701809198019091990178
:100860000995811124C087E08093A40093CF8091E3
:10087000A00090E090939901809398018091970156
:100880008F5F809397018091980190919901897F62
:100890009927803F9105A1F6809198019091990147
:1008A0009068909399018093980183E0DDCFC1FF18
:1008B00010C01092960110929501E0919E01F09166
:1008C0009F01309709F009951092940110929301BD
:1008D000ECCF1092920110929101E7CFC1FF15C0A9
:1008E000E091A001F091A101309709F009958FEFF7
:1008F0008093970180919801909199019F779093AF
:1009000099018093980180E443CFE0919C01F0919C
:100910009D01309761F31092900110928F018091A8
:100920009101909192010995E2CF82E09DCF809153
:10093000910190919201809790F480919101909112
:1009400092019C012F5F3F4F3093920120939101C0
:100950002091A00081599E4FFC012083A6CF86E004
:1009600083CF1F920F920FB60F9211242F933F93B4
:100970004F935F936F937F938F939F93AF93BF93A7
:10098000EF93FF938091340190913501892B41F5CC
:1009900081E0ACDC9DBD8CBDC8DE80913701882331
:1009A00059F0809133018823C1F085E074DB019711
:1009B000A1F410923701CADCFF91EF91BF91AF9182
:1009C0009F918F917F916F915F914F913F912F9167
:1009D0000F900FBE0F901F901895C4DCF8DDECCF80
:1009E00080E084DC9DBD8CBDA0DEE6CF1F920F921F
:1009F0000FB60F9211242F933F934F935F936F93F2
:100A00007F938F939F93AF93BF93CF93DF93EF9396
:100A1000FF9381E040DBD82F80E03DDBC82F809141
:100A200000018D1759F1D1115FC061E081E046DB13
:100A300062E081E076DB8ADC80913B01811118C0A5
:100A400081E080933B0180913601811103C063E016
:100A50008BE022DD80913801882309F441C0809128
:100A60003A01882329F081E08093370110923A01FE
:100A700081E03CDC9DBD8CBD10923601809131013E
:100A80008C17B9F080913001811113C08091380129
:100A9000882379F08091370181110BC080913A0150
:100AA000811107C0C13029F460E088E0F5DCC09313
:100AB0003A01D0930001C0933101FF91EF91DF9192
:100AC000CF91BF91AF919F918F917F916F915F91E6
:100AD0004F913F912F910F900FBE0F901F9018953F
:100AE000109232016BDDC4CF10923B01C7CF1F9231
:100AF0000F920FB60F9211242F933F934F935F9352
:100B00006F937F938F939F93AF93BF93EF93FF93D5
:100B100085E0C1DA0197C1F480912F01811103C0F2
:100B200081E080932F01FF91EF91BF91AF919F9151
:100B30008F917F916F915F914F913F912F910F9086
:100B40000FBE0F901F90189580912F01882359F3A5
:100B500080913A01882339F310922F0110923A01C3
:100B600081E08093370180933301E7DB81E0BEDBD6
:100B70009DBD8CBDD8CF71E0D09ABA98000000001E
:100B80000000E8D5D098E6D5A89400000000000049
:100B9000C89BDBD5B2F08894B2990894771F60F7B0
:100BA000D09A803011F0BA9801C0BA9A00000000C3
:100BB0000000D0D5D098A89400000000C89BC5D5EF
:100BC000C9D500000000D09A872F9927089580E2A8
:100BD00008950894881F01C0880FB9F0D09A0000CA
:100BE0000000000018F40000BA9802C0BA9A00C0D1
:100BF000B1D5D098A894000000000000C89BA5D5EE
:100C000012F4882712C0A6D5E7CFD09A00000000C2
:100C1000BA98A0D599278827D098A8940000C89B97
:100C200094D57AF3B29B81E095D500000000D09A6C
:100C3000089581E00895CF93DF93EC01862FC9DFFB
:100C4000811108C08FA5811102C083E08FA790E0B9
:100C500080E002C081E090E0DF91CF910895682F9D
:100C600080EB91E0E8CFD09ABA9A74D5D09872D53B
:100C7000C89B6BD5BA986ED508958F938F918F933B
:100C8000C89B63D5BA9A66D5A4DF882311F4EBDF3D
:100C9000F5CF0F9008950895D09A5CD5BA985AD59B
:100CA000D09858D5C89B51D5BA9A54D592DF08959B
:100CB00081E00895AF92BF92DF92EF92FF920F937F
:100CC0001F93CF93DF93EB01D62E880F991F81607E
:100CD000E3DF9091DF01911105C0811103C082E033
:100CE0008093DF018CEBE82E81E0F82E10E000E02D
:100CF0005E0181E0A81AB10881E0A016B10609F0F2
:100D000080E039DFF70181937F010F5F1F4F0D15E1
:100D100098F31092DC01C093DD011092DE01A3DF95
:100D20008C2FDF91CF911F910F91FF90EF90DF906B
:100D3000BF90AF900895C89B08D5BA9A0BD549DFEC
:100D4000089581E00895CF93C091DE01880FCC23F0
:100D500069F0A2DF882341F080E08093DF0181E029
:100D60008093DE01CF91089582E0F7CFE4DF811117
:100D700001C0C2E0C093DF01F2CF1F93CF93DF9396
:100D8000162FEA01E0DF612F80EB91E054DF6881EC
:100D900080EB91E050DF67DFE0EBF1E016A617A6ED
:100DA000DF91CF911F9108951F93CF93DF93C82FA9
:100DB000D0E0C45CDE4F1BE0AE01612F81E5DDDFDA
:100DC0001F5F21961F30C1F7DF91CF911F910895CA
:100DD000CF93DF931F92CDB7DEB780E88983AE0152
:100DE0004F5F5F4F61E081E5C8DF0F90DF91CF91EA
:100DF0000895CF92DF92EF92FF920F931F93CF93BC
:100E000080912B018330A1F154F5813079F18091EB
:100E10002B0182330CF4B7C080912B0186330CF088
:100E2000B2C088E490DF80912B01082E000C990B52
:100E3000C29715DF80912B01833309F0BAC061E0BE
:100E400070E088E490E036DF80EB91E0E6DACF9165
:100E50001F910F91FF90EF90DF90CF900ACA8530DD
:100E600009F454C0873099F67FDBD1CF2FDBCFCF89
:100E700082E4A2D97C0183E49FD98C01C091550101
:100E8000B701FF0C880B990BABD620E93BE04BE791
:100E90005DE35AD76B017C01B801110F880B990BE8
:100EA0009FD629E030EF4CE85AE34ED79B01AC01C6
:100EB000C701B60191D56B017C016C2FCC0F770B6C
:100EC000880B990B8DD620E030E048EC52E4EDD54C
:100ED0009B01AC01C701B60180D56B017C0152D6E4
:100EE000C62F83E0D9DA6C2F70E090E080E078D6EE
:100EF0009B01AC01C701B6016FD520E030E048ECA2
:100F000052E422D73FD684E0C7DA81CF83E454D9B4
:100F1000C0915601BC01990F880B990B61D629E04D
:100F200030EF4CE85AE310D72DEC3CEC4CE45DE399
:100F3000BCD56B017C016C2FCC0F770B880B990B08
:100F40004FD620E030E048EC52E4AFD59B01AC0135
:100F5000C701B60142D56B017C0114D6C62F85E0CE
:100F60009BDA6C2F70E090E080E03AD69B01AC01F8
:100F7000C701B60131D520E030E048EC52E4E4D6B8
:100F800001D686E0C1CF80912B01863364F5E091D4
:100F90002B010E2E000CFF0BE45CFE4F608182EAF9
:100FA00091E0CF911F910F91FF90EF90DF90CF9044
:100FB00048C962E070E088E490E07CDE80EB91E07C
:100FC0002CDA57D980EB91E028DA53D94CDE109215
:100FD000DE011092DF01CF911F910F91FF90EF90F2
:100FE000DF90CF90089580912B01883484F681E5BD
:100FF000AADE80912B01082E000C990BC6972FDEDC
:1010000061E070E081E590E055DEDCCFCF93DF93C7
:10101000C82FD62F98DE6D2F80EB91E00CDE61E0BB
:1010200070E08C2F90E046DE80EB91E0F6D9C82F7F
:101030001ADEE0EBF1E016A617A68C2FDF91CF9118
:1010400008951F920F920FB60F9211243F924F9264
:101050005F926F927F928F929F92AF92BF92CF9248
:10106000DF92EF92FF920F931F932F933F934F9333
:101070005F936F937F938F939F93AF93BF93EF9300
:10108000FF93CF93DF93CDB7DEB72597DEBFCDBFFC
:1010900080912E018F5F80932E0180912E018330ED
:1010A00019F410922E0149D9809138018823C9F191
:1010B00080913A018823A9F180914301813021F088
:1010C00080916501813069F580914401882321F088
:1010D00080916601813029F580914F018F3F09F1A0
:1010E000F5D96B017C0160914F0170E090E080E0E8
:1010F00075D520E030E040E251E4D7D49B01AC014B
:10110000C701B601CED487FF0CC061E088E0C4D926
:1011100064E08BE0C1D9CFD881E080933701109291
:101120003A0180913901883728F4809139018F5F25
:101130008093390160E088E469DF20916A01909131
:10114000680128170CF092C18091690166E0813036
:1011500009F494C180916901823041F466E08BE02A
:101160009BD980913801811101C0A5D864E081E547
:101170004DDF8F7798D8182F65E081E547DF93D84A
:10118000082F66E081E542DF8ED8B82E67E081E562
:101190003DDF89D8682F70E090E080E020E831E5FD
:1011A00041E050E056D66B017C016B2D70E090E081
:1011B00080E020E13EE040E050E04BD6C60ED71E76
:1011C000E81EF91E602F70E090E080E02CE330E034
:1011D00040E050E03ED6C60ED71EE81EF91EC10EF6
:1011E000D11CE11CF11C809157015DD8182F809112
:1011F000580159D8082F8091590155D8B82E80919F
:101200005A0151D8682F70E090E080E020E831E585
:1012100041E050E01ED62B013C016B2D70E090E0C8
:1012200080E020E13EE040E050E013D6530142016F
:10123000860E971EA81EB91E602F70E090E080E019
:101240002CE330E040E050E004D6860E971EA81E46
:10125000B91E810E911CA11CB11C80915C0123D888
:10126000182F80915D011FD8082F80915E011BD837
:10127000382E80915F0117D8682F70E090E080E0F1
:1012800020E831E541E050E0E4D52B013C01632D3D
:1012900070E090E080E020E13EE040E050E0D9D511
:1012A000460E571E681E791E602F70E090E080E0A9
:1012B0002CE330E040E050E0CCD5460E571E681ECF
:1012C000791EA3019201210F311D411D511D2A8359
:1012D0003B834C835D8380913801882309F4D9C016
:1012E00081E091E081149104A104B10431F02091D6
:1012F000450191E0213009F090E02A813B814C8149
:101300005D81232B242B252B09F407C13091460145
:1013100021E0313009F020E0B701A6014819590950
:101320006A097B098A809B80AC80BD80C818D90877
:10133000EA08FB08882309F406C191114CC1423028
:1013400051056105710508F0F2C061E089E0A4D89B
:1013500061E087E2A1D8809138018111E0C061E0AD
:101360008BE09AD8A8D780912C018F5F80932C01B5
:1013700080912C018F3F79F510922C0180916201B0
:1013800041E651E0813021F560E088E43FDE682FDE
:101390008A310CF0F4C0062E000C770B6A517109EB
:1013A000072E000C880B990B1BD424E035EC41E090
:1013B0005EE3CAD4E2D390916101892F8F7396FDC9
:1013C0008054680F67FD60586983AE014F5F5F4FBF
:1013D00062E081E5D2DC80913801811113C08091F7
:1013E0002D01882379F080912D018F5F80932D014D
:1013F00080912D01843031F410922D0168E08BE052
:101400004BD859D763D82DEC3CEC4CE45DE398D431
:1014100018162CF480913801811101C04CD70F901F
:101420000F900F900F900F90DF91CF91FF91EF9160
:10143000BF91AF919F918F917F916F915F914F91EC
:101440003F912F911F910F91FF90EF90DF90CF90E0
:10145000BF90AF909F908F907F906F905F904F90D4
:101460003F900F900FBE0F901F90189589170CF0AA
:101470007DCE80916701813029F467E08BE00CD844
:1014800022D774CE8091670167E0823009F06ECE7A
:1014900066CE80914301882309F422CF15B12F9A9B
:1014A00015D82B013C0115B960914F0170E090E017
:1014B00080E094D320E030E040E251E4F6D2209185
:1014C0004401A3012130D9F49201EBD287FF23C05C
:1014D00060915201809152018F3F09F401CF70E079
:1014E00090E080E07BD320E030E040E251E4DDD2C8
:1014F000A3019201D6D2881F8827881FF2CE9201BD
:10150000D0D287FDEDCE80914F018F3F09F4E8CE18
:1015100061E088E0C1D780E0E4CE21E0FDCE80919B
:101520006C0180FD20CF81E080932D011CCF211123
:1015300078C0F7FE54C077FF17C04E3F5F4F6F4F24
:101540007F4F94F009C091110BC077FF09C04E3F47
:101550005F4F6F4F7F4F24F03BDC8BE125DC03CFE7
:10156000211101CFF7FEFFCE9EEFC9169FEFD906DE
:10157000E906F9060CF4F7CE2BDC80E2EFCF8FED15
:10158000860F8A3078F4062E000C770B60527109B2
:10159000072E000C880B990B23D32AE731EC4CEB78
:1015A0005DEB07CF6B32ACF0062E000C770B6A5266
:1015B0007109072E000C880B990B12D32BE131E92E
:1015C0004DE85EEBC1D328ED31EF4BE65FE304D28B
:1015D000F1CE60E0F0CE2111C6CEF7FCC5CF32E0EF
:1015E000C316D104E104F104CCF461E08AE054D7DD
:1015F00061E088E251D780913801882309F4B3CEA5
:10160000809137018111AFCE62E08BE045D753D690
:1016100081E08093370110923A01A5CE9111A3CEBB
:1016200094CF77FFA0CE4E3F5F4F6F4F7F4F0CF4AC
:101630009ACE92CF82EA91E0C6D6892B09F476C081
:1016400082EA91E0A6D680932B0180912B01823310
:10165000DCF080912B018633BCF488E474DB80914C
:101660002B01082E000C990BC297F9DA80912B01FF
:10167000833399F482EA91E08CD6F1DAF4DA1092AD
:10168000DE011092DF01089580912B01863374F4FE
:1016900080912B018031BCF4089580912B0182331D
:1016A00069F382EA91E075D6DADAE4CF80912B0112
:1016B000883474F781E547DB80912B01082E000CFC
:1016C000990BC697F1CF80912B0182337CF582EA8A
:1016D00091E079D6892B51F180912B018B313CF02F
:1016E00080912B0180321CF460E089E0D5D6809196
:1016F0002B0180323CF080912B0185321CF460E09C
:101700008AE0CAD682EA91E044D6682F80912B0104
:10171000C3D680912B01853249F480916101809379
:10172000740141E651E062E081E527CB0895BA9863
:10173000D098C298D89888279927B29B0895C89BBB
:10174000089581E0089581E00895C89BFECFA89494
:101750000895089598E09A95F1F708950895E2EABA
:10176000F1E01382128288EE93E0A0E0B0E084837F
:101770009583A683B78325E031E0318320832FE66C
:1017800031E035872487E0EBF1E013821282848315
:101790009583A683B78385E191E091838083089543
:1017A000789480B7836080BF83B7877F83BF83B718
:1017B000887F836083BF8091C900887F8093C90040
:1017C0008091CA008C7F81608093CA008091C9009B
:1017D000877E8093C9008091C900887F8360809351
:1017E000C9008EB5887F8EBD8FB58C7F81608FBD1F
:1017F0008EB5877E8EBD8EB5887F83608EBD80E17D
:101800008093670084EA809368008CEF8093660081
:1018100085B1887F866085B92F9A1092DC0110927D
:10182000DD011092DF011092DE0181DF60E080E0D7
:1018300078D462E081E075D461E083E072D460E046
:1018400085E06FD460E081E46CD460E082E469D428
:1018500060E083E466D462E084E063D462E086E022
:1018600060D480D581E080936E0196E290933C0134
:1018700095E09093480198E090934C0194E0909308
:101880004E019FEF90934F0124E62093500126E4F0
:10189000209351019093520194E1909354019093BD
:1018A0005501809362018BE48093680180E5809309
:1018B0006A01D0E0C0E0CE0179D0FE01E45CFE4FC9
:1018C0008F3F09F068C01081CE0170D0181719F051
:1018D000612FCE0173D02196C233D10561F74AE65C
:1018E00051E063E088E449DA48E651E062E088E4E8
:1018F00044DA41E651E062E081E53FDA80914C0153
:10190000883008F44AC080914C01883708F045C0FF
:1019100080914C01E091AE01F091AF01880F80936E
:10192000A2001092A1008FEF80A78CEB8093A500FE
:101930008EEE91E094A783A78AE19BE096A785A706
:1019400089EF96E090AB87A7F89480E38BBF83E0A4
:1019500080BD80E282BB0ED5F89481B5806481BDE4
:1019600081B5866081BD7894789480914D018130F5
:10197000D9F480916B0190E068EE73E059D2092EA2
:10198000000CAA0BBB0B2CEC37E00197A109B109A5
:1019900038F414D6FFCF80839ECF88E090E0BACF92
:1019A000F9013197F1F7F1CF12D6F4CFE199FECFDB
:1019B0009FBB8EBBE09A99278DB30895262FE1999E
:1019C000FECF1CBA9FBB8EBB2DBB0FB6F894E29A1C
:1019D000E19A0FBE019608955058BB27AA270ED052
:1019E00075C166D130F06BD120F031F49F3F11F416
:1019F0001EF45BC10EF4E095E7FB51C1E92F77D1EE
:101A000080F3BA17620773078407950718F071F41B
:101A10009EF58FC10EF4E0950B2EBA2FA02D0B0171
:101A2000B90190010C01CA01A0011124FF27591B23
:101A300099F0593F50F4503E68F11A16F040A22F29
:101A4000232F342F4427585FF3CF4695379527959A
:101A5000A795F0405395C9F77EF41F16BA0B620B99
:101A6000730B840BBAF09150A1F0FF0FBB1F661FE0
:101A7000771F881FC2F70EC0BA0F621F731F841F23
:101A800048F4879577956795B795F7959E3F08F049
:101A9000B3CF9395880F08F09927EE0F9795879508
:101AA0000895D9D008F481E008950CD00FC107D172
:101AB00040F0FED030F021F45F3F19F0F0C051113A
:101AC00039C1F3C014D198F39923C9F35523B1F365
:101AD000951B550BBB27AA2762177307840738F09D
:101AE0009F5F5F4F220F331F441FAA1FA9F333D0FC
:101AF0000E2E3AF0E0E830D091505040E695001CB0
:101B0000CAF729D0FE2F27D0660F771F881FBB1F6B
:101B1000261737074807AB07B0E809F0BB0B802D45
:101B2000BF01FF2793585F4F2AF09E3F510568F091
:101B3000B6C000C15F3FECF3983EDCF38695779525
:101B40006795B795F7959F5FC9F7880F911D969593
:101B5000879597F90895E1E0660F771F881FBB1FEF
:101B6000621773078407BA0720F0621B730B840B9C
:101B7000BA0BEE1F88F7E095089504D06894B11170
:101B8000D9C00895BCD088F09F5790F0B92F9927FD
:101B9000B751A0F0D1F0660F771F881F991F1AF078
:101BA000BA95C9F712C0B13081F0C3D0B1E0089541
:101BB000C0C0672F782F8827B85F39F0B93FCCF3C2
:101BC000869577956795B395D9F73EF4909580956E
:101BD000709561957F4F8F4F9F4F0895E89409C08E
:101BE00097FB3EF490958095709561957F4F8F4F50
:101BF0009F4F9923A9F0F92F96E9BB279395F69566
:101C0000879577956795B795F111F8CFFAF4BB0FE3
:101C100011F460FF1BC06F5F7F4F8F4F9F4F16C047
:101C2000882311F096E911C0772321F09EE8872FD1
:101C3000762F05C0662371F096E8862F70E060E08D
:101C40002AF09A95660F771F881FDAF7880F969506
:101C5000879597F90895990F0008550FAA0BE0E8AA
:101C6000FEEF16161706E807F907C0F0121613065E
:101C7000E407F50798F0621B730B840B950B39F49E
:101C80000A2661F0232B242B252B21F408950A2604
:101C900009F4A140A6958FEF811D811D089597F944
:101CA0009F6780E870E060E008959FEF80EC089502
:101CB00000240A941616170618060906089500242B
:101CC0000A9412161306140605060895092E0394A5
:101CD000000C11F4882352F0BB0F40F4BF2B11F419
:101CE00060FF04C06F5F7F4F8F4F9F4F089557FD78
:101CF0009058440F551F59F05F3F71F04795880F7A
:101D000097FB991F61F09F3F79F087950895121610
:101D100013061406551FF2CF4695F1DF08C01616BC
:101D200017061806991FF1CF86957105610508946D
:101D30000895E894BB2766277727CB0197F9089584
:101D40008ADF08F48FEF08950AD0C0CFB1DF28F002
:101D5000B6DF18F0952309F0A2CFA7CFEBCFC7DFEE
:101D6000A8F39923D9F35523C9F3950F50E0551FD4
:101D7000AA27EE27FF27BB2700240894679520F4A5
:101D8000E20FF31FB41F0A1E220F331F441FAA1FA6
:101D90006695A9F7779530F4F30FB41F0A1E121E4B
:101DA00008F46395330F441FAA1F221F769599F7F5
:101DB000879520F4B40F0A1E121E631F440FAA1F3A
:101DC000221F331F8695A9F7862F712D602D1124B0
:101DD0009F5750408AF0E1F088234AF0EE0FFF1F32
:101DE000BB1F661F771F881F91505040A9F79E3F69
:101DF000510570F054CF9ECF5F3FECF3983EDCF37B
:101E0000869577956795B795F795E7959F5FC1F7A5
:101E1000FE2B880F911D9695879597F908950024BC
:101E200080FD060E660F11F08695D1F7802D08957E
:101E30000024552704C0080E591F880F991F0097CA
:101E400029F076956795B8F37105B9F7802D952F30
:101E50000895EE27FF27AA27BB2708C0A20FB31FAC
:101E6000E41FF51F220F331F441F551F96958795BA
:101E70007795679598F37040A9F7009799F7BD019A
:101E8000CF010895EE0FFF1F0590F491E02D099406
:041E9000F894FFCFF4
:101E940001000000002101F100E301C9013E013D00
:101EA40001000000001B0624021E020D02FC013D7D
:021EB40001002B
:00000001FF
